{
  "_format": "hh-sol-artifact-1",
  "contractName": "NFTMarketplace",
  "sourceName": "contracts/NFTMarketplace.sol",
  "abi": [
    {
      "inputs": [],
      "stateMutability": "nonpayable",
      "type": "constructor"
    },
    {
      "anonymous": false,
      "inputs": [
        {
          "indexed": true,
          "internalType": "address",
          "name": "owner",
          "type": "address"
        },
        {
          "indexed": true,
          "internalType": "address",
          "name": "approved",
          "type": "address"
        },
        {
          "indexed": true,
          "internalType": "uint256",
          "name": "tokenId",
          "type": "uint256"
        }
      ],
      "name": "Approval",
      "type": "event"
    },
    {
      "anonymous": false,
      "inputs": [
        {
          "indexed": true,
          "internalType": "address",
          "name": "owner",
          "type": "address"
        },
        {
          "indexed": true,
          "internalType": "address",
          "name": "operator",
          "type": "address"
        },
        {
          "indexed": false,
          "internalType": "bool",
          "name": "approved",
          "type": "bool"
        }
      ],
      "name": "ApprovalForAll",
      "type": "event"
    },
    {
      "anonymous": false,
      "inputs": [
        {
          "indexed": false,
          "internalType": "uint256",
          "name": "listingId",
          "type": "uint256"
        },
        {
          "indexed": true,
          "internalType": "address",
          "name": "seller",
          "type": "address"
        },
        {
          "indexed": true,
          "internalType": "address",
          "name": "bidder",
          "type": "address"
        },
        {
          "indexed": false,
          "internalType": "uint256",
          "name": "bid",
          "type": "uint256"
        }
      ],
      "name": "AuctionCompleted",
      "type": "event"
    },
    {
      "anonymous": false,
      "inputs": [
        {
          "indexed": true,
          "internalType": "address",
          "name": "seller",
          "type": "address"
        },
        {
          "indexed": false,
          "internalType": "uint256",
          "name": "price",
          "type": "uint256"
        },
        {
          "indexed": false,
          "internalType": "uint256",
          "name": "tokenId",
          "type": "uint256"
        },
        {
          "indexed": false,
          "internalType": "uint256",
          "name": "startAt",
          "type": "uint256"
        },
        {
          "indexed": false,
          "internalType": "uint256",
          "name": "endAt",
          "type": "uint256"
        }
      ],
      "name": "AuctionCreated",
      "type": "event"
    },
    {
      "anonymous": false,
      "inputs": [
        {
          "indexed": false,
          "internalType": "uint256",
          "name": "listingId",
          "type": "uint256"
        },
        {
          "indexed": true,
          "internalType": "address",
          "name": "bidder",
          "type": "address"
        },
        {
          "indexed": false,
          "internalType": "uint256",
          "name": "bid",
          "type": "uint256"
        }
      ],
      "name": "BidCreated",
      "type": "event"
    },
    {
      "anonymous": false,
      "inputs": [
        {
          "indexed": true,
          "internalType": "uint256",
          "name": "tokenId",
          "type": "uint256"
        },
        {
          "indexed": false,
          "internalType": "address",
          "name": "seller",
          "type": "address"
        },
        {
          "indexed": false,
          "internalType": "address",
          "name": "owner",
          "type": "address"
        },
        {
          "indexed": false,
          "internalType": "uint256",
          "name": "price",
          "type": "uint256"
        },
        {
          "indexed": false,
          "internalType": "bool",
          "name": "sold",
          "type": "bool"
        }
      ],
      "name": "MarketItemCreated",
      "type": "event"
    },
    {
      "anonymous": false,
      "inputs": [
        {
          "indexed": true,
          "internalType": "address",
          "name": "from",
          "type": "address"
        },
        {
          "indexed": true,
          "internalType": "address",
          "name": "to",
          "type": "address"
        },
        {
          "indexed": true,
          "internalType": "uint256",
          "name": "tokenId",
          "type": "uint256"
        }
      ],
      "name": "Transfer",
      "type": "event"
    },
    {
      "anonymous": false,
      "inputs": [
        {
          "indexed": false,
          "internalType": "uint256",
          "name": "listingId",
          "type": "uint256"
        },
        {
          "indexed": true,
          "internalType": "address",
          "name": "bidder",
          "type": "address"
        },
        {
          "indexed": false,
          "internalType": "uint256",
          "name": "bid",
          "type": "uint256"
        }
      ],
      "name": "WithdrawBid",
      "type": "event"
    },
    {
      "inputs": [],
      "name": "AuctionCounter",
      "outputs": [
        {
          "internalType": "uint256",
          "name": "",
          "type": "uint256"
        }
      ],
      "stateMutability": "view",
      "type": "function"
    },
    {
      "inputs": [
        {
          "internalType": "address",
          "name": "to",
          "type": "address"
        },
        {
          "internalType": "uint256",
          "name": "tokenId",
          "type": "uint256"
        }
      ],
      "name": "approve",
      "outputs": [],
      "stateMutability": "nonpayable",
      "type": "function"
    },
    {
      "inputs": [
        {
          "internalType": "address",
          "name": "owner",
          "type": "address"
        }
      ],
      "name": "balanceOf",
      "outputs": [
        {
          "internalType": "uint256",
          "name": "",
          "type": "uint256"
        }
      ],
      "stateMutability": "view",
      "type": "function"
    },
    {
      "inputs": [
        {
          "internalType": "uint256",
          "name": "tokenId",
          "type": "uint256"
        }
      ],
      "name": "bid",
      "outputs": [
        {
          "internalType": "uint256",
          "name": "",
          "type": "uint256"
        }
      ],
      "stateMutability": "payable",
      "type": "function"
    },
    {
      "inputs": [
        {
          "internalType": "uint256",
          "name": "",
          "type": "uint256"
        }
      ],
      "name": "bidders",
      "outputs": [
        {
          "internalType": "address",
          "name": "",
          "type": "address"
        }
      ],
      "stateMutability": "view",
      "type": "function"
    },
    {
      "inputs": [
        {
          "internalType": "uint256",
          "name": "",
          "type": "uint256"
        },
        {
          "internalType": "address",
          "name": "",
          "type": "address"
        }
      ],
      "name": "bids",
      "outputs": [
        {
          "internalType": "uint256",
          "name": "",
          "type": "uint256"
        }
      ],
      "stateMutability": "view",
      "type": "function"
    },
    {
      "inputs": [
        {
          "internalType": "uint256",
          "name": "tokenId",
          "type": "uint256"
        }
      ],
      "name": "buyNFTWithToken",
      "outputs": [
        {
          "internalType": "address",
          "name": "",
          "type": "address"
        }
      ],
      "stateMutability": "payable",
      "type": "function"
    },
    {
      "inputs": [
        {
          "internalType": "uint256",
          "name": "tokenId",
          "type": "uint256"
        }
      ],
      "name": "completeAuction",
      "outputs": [],
      "stateMutability": "payable",
      "type": "function"
    },
    {
      "inputs": [
        {
          "internalType": "uint256",
          "name": "auctionPrice",
          "type": "uint256"
        },
        {
          "internalType": "uint256",
          "name": "tokenId",
          "type": "uint256"
        },
        {
          "internalType": "uint256",
          "name": "durationInSeconds",
          "type": "uint256"
        }
      ],
      "name": "createAuctionListing",
      "outputs": [
        {
          "internalType": "uint256",
          "name": "",
          "type": "uint256"
        }
      ],
      "stateMutability": "nonpayable",
      "type": "function"
    },
    {
      "inputs": [
        {
          "internalType": "uint256",
          "name": "tokenId",
          "type": "uint256"
        }
      ],
      "name": "createMarketSale",
      "outputs": [],
      "stateMutability": "payable",
      "type": "function"
    },
    {
      "inputs": [
        {
          "internalType": "string",
          "name": "tokenURI",
          "type": "string"
        },
        {
          "internalType": "uint256",
          "name": "price",
          "type": "uint256"
        },
        {
          "internalType": "uint256",
          "name": "tokenPrice",
          "type": "uint256"
        }
      ],
      "name": "createToken",
      "outputs": [
        {
          "internalType": "uint256",
          "name": "",
          "type": "uint256"
        }
      ],
      "stateMutability": "payable",
      "type": "function"
    },
    {
      "inputs": [],
      "name": "fetchItemsAuctionItems",
      "outputs": [
        {
          "components": [
            {
              "internalType": "uint256",
              "name": "tokenId",
              "type": "uint256"
            },
            {
              "internalType": "address payable",
              "name": "seller",
              "type": "address"
            },
            {
              "internalType": "address payable",
              "name": "owner",
              "type": "address"
            },
            {
              "internalType": "uint256",
              "name": "price",
              "type": "uint256"
            },
            {
              "internalType": "uint256",
              "name": "netPrice",
              "type": "uint256"
            },
            {
              "internalType": "bool",
              "name": "sold",
              "type": "bool"
            },
            {
              "internalType": "bool",
              "name": "auction",
              "type": "bool"
            },
            {
              "internalType": "uint256",
              "name": "startAt",
              "type": "uint256"
            },
            {
              "internalType": "uint256",
              "name": "endAt",
              "type": "uint256"
            },
            {
              "internalType": "uint256",
              "name": "tokenPrice",
              "type": "uint256"
            }
          ],
          "internalType": "struct NFTMarketplace.MarketItem[]",
          "name": "",
          "type": "tuple[]"
        }
      ],
      "stateMutability": "view",
      "type": "function"
    },
    {
      "inputs": [],
      "name": "fetchItemsListeded",
      "outputs": [
        {
          "components": [
            {
              "internalType": "uint256",
              "name": "tokenId",
              "type": "uint256"
            },
            {
              "internalType": "address payable",
              "name": "seller",
              "type": "address"
            },
            {
              "internalType": "address payable",
              "name": "owner",
              "type": "address"
            },
            {
              "internalType": "uint256",
              "name": "price",
              "type": "uint256"
            },
            {
              "internalType": "uint256",
              "name": "netPrice",
              "type": "uint256"
            },
            {
              "internalType": "bool",
              "name": "sold",
              "type": "bool"
            },
            {
              "internalType": "bool",
              "name": "auction",
              "type": "bool"
            },
            {
              "internalType": "uint256",
              "name": "startAt",
              "type": "uint256"
            },
            {
              "internalType": "uint256",
              "name": "endAt",
              "type": "uint256"
            },
            {
              "internalType": "uint256",
              "name": "tokenPrice",
              "type": "uint256"
            }
          ],
          "internalType": "struct NFTMarketplace.MarketItem[]",
          "name": "",
          "type": "tuple[]"
        }
      ],
      "stateMutability": "view",
      "type": "function"
    },
    {
      "inputs": [],
      "name": "fetchMarketAuctionItems",
      "outputs": [
        {
          "components": [
            {
              "internalType": "uint256",
              "name": "tokenId",
              "type": "uint256"
            },
            {
              "internalType": "address payable",
              "name": "seller",
              "type": "address"
            },
            {
              "internalType": "address payable",
              "name": "owner",
              "type": "address"
            },
            {
              "internalType": "uint256",
              "name": "price",
              "type": "uint256"
            },
            {
              "internalType": "uint256",
              "name": "netPrice",
              "type": "uint256"
            },
            {
              "internalType": "bool",
              "name": "sold",
              "type": "bool"
            },
            {
              "internalType": "bool",
              "name": "auction",
              "type": "bool"
            },
            {
              "internalType": "uint256",
              "name": "startAt",
              "type": "uint256"
            },
            {
              "internalType": "uint256",
              "name": "endAt",
              "type": "uint256"
            },
            {
              "internalType": "uint256",
              "name": "tokenPrice",
              "type": "uint256"
            }
          ],
          "internalType": "struct NFTMarketplace.MarketItem[]",
          "name": "",
          "type": "tuple[]"
        }
      ],
      "stateMutability": "view",
      "type": "function"
    },
    {
      "inputs": [],
      "name": "fetchMarketItems",
      "outputs": [
        {
          "components": [
            {
              "internalType": "uint256",
              "name": "tokenId",
              "type": "uint256"
            },
            {
              "internalType": "address payable",
              "name": "seller",
              "type": "address"
            },
            {
              "internalType": "address payable",
              "name": "owner",
              "type": "address"
            },
            {
              "internalType": "uint256",
              "name": "price",
              "type": "uint256"
            },
            {
              "internalType": "uint256",
              "name": "netPrice",
              "type": "uint256"
            },
            {
              "internalType": "bool",
              "name": "sold",
              "type": "bool"
            },
            {
              "internalType": "bool",
              "name": "auction",
              "type": "bool"
            },
            {
              "internalType": "uint256",
              "name": "startAt",
              "type": "uint256"
            },
            {
              "internalType": "uint256",
              "name": "endAt",
              "type": "uint256"
            },
            {
              "internalType": "uint256",
              "name": "tokenPrice",
              "type": "uint256"
            }
          ],
          "internalType": "struct NFTMarketplace.MarketItem[]",
          "name": "",
          "type": "tuple[]"
        }
      ],
      "stateMutability": "view",
      "type": "function"
    },
    {
      "inputs": [],
      "name": "fetchMyNFTs",
      "outputs": [
        {
          "components": [
            {
              "internalType": "uint256",
              "name": "tokenId",
              "type": "uint256"
            },
            {
              "internalType": "address payable",
              "name": "seller",
              "type": "address"
            },
            {
              "internalType": "address payable",
              "name": "owner",
              "type": "address"
            },
            {
              "internalType": "uint256",
              "name": "price",
              "type": "uint256"
            },
            {
              "internalType": "uint256",
              "name": "netPrice",
              "type": "uint256"
            },
            {
              "internalType": "bool",
              "name": "sold",
              "type": "bool"
            },
            {
              "internalType": "bool",
              "name": "auction",
              "type": "bool"
            },
            {
              "internalType": "uint256",
              "name": "startAt",
              "type": "uint256"
            },
            {
              "internalType": "uint256",
              "name": "endAt",
              "type": "uint256"
            },
            {
              "internalType": "uint256",
              "name": "tokenPrice",
              "type": "uint256"
            }
          ],
          "internalType": "struct NFTMarketplace.MarketItem[]",
          "name": "",
          "type": "tuple[]"
        }
      ],
      "stateMutability": "view",
      "type": "function"
    },
    {
      "inputs": [
        {
          "internalType": "uint256",
          "name": "tokenId",
          "type": "uint256"
        }
      ],
      "name": "getApproved",
      "outputs": [
        {
          "internalType": "address",
          "name": "",
          "type": "address"
        }
      ],
      "stateMutability": "view",
      "type": "function"
    },
    {
      "inputs": [],
      "name": "getBidders",
      "outputs": [
        {
          "internalType": "address[]",
          "name": "",
          "type": "address[]"
        }
      ],
      "stateMutability": "view",
      "type": "function"
    },
    {
      "inputs": [],
      "name": "getContractBalance",
      "outputs": [
        {
          "internalType": "uint256",
          "name": "",
          "type": "uint256"
        }
      ],
      "stateMutability": "view",
      "type": "function"
    },
    {
      "inputs": [
        {
          "internalType": "uint256",
          "name": "tokenId",
          "type": "uint256"
        }
      ],
      "name": "getHighestBidder",
      "outputs": [
        {
          "internalType": "address",
          "name": "",
          "type": "address"
        }
      ],
      "stateMutability": "view",
      "type": "function"
    },
    {
      "inputs": [],
      "name": "getListingPrice",
      "outputs": [
        {
          "internalType": "uint256",
          "name": "",
          "type": "uint256"
        }
      ],
      "stateMutability": "view",
      "type": "function"
    },
    {
      "inputs": [
        {
          "internalType": "uint256",
          "name": "",
          "type": "uint256"
        }
      ],
      "name": "highestBidder",
      "outputs": [
        {
          "internalType": "address",
          "name": "",
          "type": "address"
        }
      ],
      "stateMutability": "view",
      "type": "function"
    },
    {
      "inputs": [
        {
          "internalType": "address",
          "name": "owner",
          "type": "address"
        },
        {
          "internalType": "address",
          "name": "operator",
          "type": "address"
        }
      ],
      "name": "isApprovedForAll",
      "outputs": [
        {
          "internalType": "bool",
          "name": "",
          "type": "bool"
        }
      ],
      "stateMutability": "view",
      "type": "function"
    },
    {
      "inputs": [
        {
          "internalType": "uint256",
          "name": "tokenId",
          "type": "uint256"
        }
      ],
      "name": "isAuctionExpired",
      "outputs": [
        {
          "internalType": "bool",
          "name": "",
          "type": "bool"
        }
      ],
      "stateMutability": "view",
      "type": "function"
    },
    {
      "inputs": [
        {
          "internalType": "uint256",
          "name": "tokenId",
          "type": "uint256"
        }
      ],
      "name": "isAuctionOpen",
      "outputs": [
        {
          "internalType": "bool",
          "name": "",
          "type": "bool"
        }
      ],
      "stateMutability": "view",
      "type": "function"
    },
    {
      "inputs": [],
      "name": "name",
      "outputs": [
        {
          "internalType": "string",
          "name": "",
          "type": "string"
        }
      ],
      "stateMutability": "view",
      "type": "function"
    },
    {
      "inputs": [
        {
          "internalType": "uint256",
          "name": "tokenId",
          "type": "uint256"
        }
      ],
      "name": "ownerOf",
      "outputs": [
        {
          "internalType": "address",
          "name": "",
          "type": "address"
        }
      ],
      "stateMutability": "view",
      "type": "function"
    },
    {
      "inputs": [
        {
          "internalType": "uint256",
          "name": "tokenId",
          "type": "uint256"
        },
        {
          "internalType": "uint256",
          "name": "price",
          "type": "uint256"
        }
      ],
      "name": "resellToken",
      "outputs": [],
      "stateMutability": "payable",
      "type": "function"
    },
    {
      "inputs": [
        {
          "internalType": "address",
          "name": "from",
          "type": "address"
        },
        {
          "internalType": "address",
          "name": "to",
          "type": "address"
        },
        {
          "internalType": "uint256",
          "name": "tokenId",
          "type": "uint256"
        }
      ],
      "name": "safeTransferFrom",
      "outputs": [],
      "stateMutability": "nonpayable",
      "type": "function"
    },
    {
      "inputs": [
        {
          "internalType": "address",
          "name": "from",
          "type": "address"
        },
        {
          "internalType": "address",
          "name": "to",
          "type": "address"
        },
        {
          "internalType": "uint256",
          "name": "tokenId",
          "type": "uint256"
        },
        {
          "internalType": "bytes",
          "name": "data",
          "type": "bytes"
        }
      ],
      "name": "safeTransferFrom",
      "outputs": [],
      "stateMutability": "nonpayable",
      "type": "function"
    },
    {
      "inputs": [
        {
          "internalType": "address",
          "name": "operator",
          "type": "address"
        },
        {
          "internalType": "bool",
          "name": "approved",
          "type": "bool"
        }
      ],
      "name": "setApprovalForAll",
      "outputs": [],
      "stateMutability": "nonpayable",
      "type": "function"
    },
    {
      "inputs": [
        {
          "internalType": "bytes4",
          "name": "interfaceId",
          "type": "bytes4"
        }
      ],
      "name": "supportsInterface",
      "outputs": [
        {
          "internalType": "bool",
          "name": "",
          "type": "bool"
        }
      ],
      "stateMutability": "view",
      "type": "function"
    },
    {
      "inputs": [],
      "name": "symbol",
      "outputs": [
        {
          "internalType": "string",
          "name": "",
          "type": "string"
        }
      ],
      "stateMutability": "view",
      "type": "function"
    },
    {
      "inputs": [
        {
          "internalType": "uint256",
          "name": "tokenId",
          "type": "uint256"
        }
      ],
      "name": "tokenURI",
      "outputs": [
        {
          "internalType": "string",
          "name": "",
          "type": "string"
        }
      ],
      "stateMutability": "view",
      "type": "function"
    },
    {
      "inputs": [
        {
          "internalType": "address",
          "name": "from",
          "type": "address"
        },
        {
          "internalType": "address",
          "name": "to",
          "type": "address"
        },
        {
          "internalType": "uint256",
          "name": "tokenId",
          "type": "uint256"
        }
      ],
      "name": "transferFrom",
      "outputs": [],
      "stateMutability": "nonpayable",
      "type": "function"
    },
    {
      "inputs": [
        {
          "internalType": "uint256",
          "name": "_listingPrice",
          "type": "uint256"
        }
      ],
      "name": "updatListingPrice",
      "outputs": [],
      "stateMutability": "payable",
      "type": "function"
    },
    {
      "inputs": [
        {
          "internalType": "uint256",
          "name": "tokenId",
          "type": "uint256"
        }
      ],
      "name": "widthdrawBid",
      "outputs": [],
      "stateMutability": "payable",
      "type": "function"
    },
    {
      "inputs": [],
      "name": "withdraw",
      "outputs": [],
      "stateMutability": "nonpayable",
      "type": "function"
    }
  ],
  "bytecode": "0x608060405266354a6ba7a18000600a553480156200001c57600080fd5b50604080518082018252600a81526943727970746f4b696e6760b01b602080830191825283518085019094526002845261434b60f01b90840152815191929162000069916000916200009f565b5080516200007f9060019060208401906200009f565b5050600160075550600b80546001600160a01b0319163317905562000182565b828054620000ad9062000145565b90600052602060002090601f016020900481019282620000d157600085556200011c565b82601f10620000ec57805160ff19168380011785556200011c565b828001600101855582156200011c579182015b828111156200011c578251825591602001919060010190620000ff565b506200012a9291506200012e565b5090565b5b808211156200012a57600081556001016200012f565b600181811c908216806200015a57607f821691505b602082108114156200017c57634e487b7160e01b600052602260045260246000fd5b50919050565b613cdb80620001926000396000f3fe6080604052600436106102855760003560e01c80636f9fb98a11610153578063bec2a7c5116100cb578063cff29dfd1161007f578063d4c6686111610064578063d4c66861146106ce578063e219fc75146106e1578063e985e9c5146106f457600080fd5b8063cff29dfd14610698578063d22f64d7146106b857600080fd5b8063c750cb79116100b0578063c750cb7914610620578063c87b56dd14610656578063cb6632ef1461067657600080fd5b8063bec2a7c5146105f8578063c5856cc91461060b57600080fd5b806387a69da611610122578063a22cb46511610107578063a22cb465146105a5578063b88d4fde146105c5578063be9af536146105e557600080fd5b806387a69da61461057b57806395d89b411461059057600080fd5b80636f9fb98a1461052257806370a082311461053557806382537dc9146105555780638299f3b01461056857600080fd5b8063202e37401161020157806342842e0e116101b5578063454a2ab31161019a578063454a2ab3146104cf5780634c22f381146104e25780636352211e1461050257600080fd5b806342842e0e14610479578063451df52e1461049957600080fd5b806323b872dd116101e657806323b872dd1461040c5780633ccfd60b1461042c5780633f1ffcec1461044157600080fd5b8063202e3740146103e457806321b62886146103f957600080fd5b80630ad4862811610258578063114cb8171161023d578063114cb8171461037d57806312e85585146103925780631389b117146103b157600080fd5b80630ad486281461033b5780630f08efe01461035b57600080fd5b806301ffc9a71461028a57806306fdde03146102bf578063081812fc146102e1578063095ea7b314610319575b600080fd5b34801561029657600080fd5b506102aa6102a53660046138eb565b61073d565b60405190151581526020015b60405180910390f35b3480156102cb57600080fd5b506102d46107da565b6040516102b69190613b9f565b3480156102ed57600080fd5b506103016102fc366004613982565b61086c565b6040516001600160a01b0390911681526020016102b6565b34801561032557600080fd5b506103396103343660046138c2565b610893565b005b34801561034757600080fd5b506102aa610356366004613982565b6109ca565b34801561036757600080fd5b50610370610a09565b6040516102b69190613aec565b34801561038957600080fd5b50610370610c3b565b34801561039e57600080fd5b50600a545b6040519081526020016102b6565b3480156103bd57600080fd5b506102aa6103cc366004613982565b6000908152600c602052604090206007015442101590565b3480156103f057600080fd5b50610370610f1d565b610339610407366004613982565b61118d565b34801561041857600080fd5b506103396104273660046137d4565b6113d7565b34801561043857600080fd5b5061033961144e565b34801561044d57600080fd5b506103a361045c36600461399a565b600e60209081526000928352604080842090915290825290205481565b34801561048557600080fd5b506103396104943660046137d4565b61155a565b3480156104a557600080fd5b506103016104b4366004613982565b6010602052600090815260409020546001600160a01b031681565b6103a36104dd366004613982565b611575565b3480156104ee57600080fd5b506103a36104fd3660046139dd565b611841565b34801561050e57600080fd5b5061030161051d366004613982565b611958565b34801561052e57600080fd5b50476103a3565b34801561054157600080fd5b506103a3610550366004613788565b6119bd565b610339610563366004613982565b611a57565b610339610576366004613982565b611b88565b34801561058757600080fd5b50610370611c0d565b34801561059c57600080fd5b506102d4611e7d565b3480156105b157600080fd5b506103396105c0366004613888565b611e8c565b3480156105d157600080fd5b506103396105e036600461380f565b611e97565b6103396105f3366004613982565b611f15565b6103a3610606366004613923565b6120a1565b34801561061757600080fd5b506103706120e5565b34801561062c57600080fd5b5061030161063b366004613982565b6000908152601060205260409020546001600160a01b031690565b34801561066257600080fd5b506102d4610671366004613982565b61235b565b34801561068257600080fd5b5061068b612464565b6040516102b69190613a9f565b3480156106a457600080fd5b506103016106b3366004613982565b6124c5565b3480156106c457600080fd5b506103a3600d5481565b6103016106dc366004613982565b6124ef565b6103396106ef3660046139bc565b612605565b34801561070057600080fd5b506102aa61070f3660046137a2565b6001600160a01b03918216600090815260056020908152604080832093909416825291909152205460ff1690565b60006001600160e01b031982167f80ac58cd0000000000000000000000000000000000000000000000000000000014806107a057506001600160e01b031982167f5b5e139f00000000000000000000000000000000000000000000000000000000145b806107d457507f01ffc9a7000000000000000000000000000000000000000000000000000000006001600160e01b03198316145b92915050565b6060600080546107e990613c0d565b80601f016020809104026020016040519081016040528092919081815260200182805461081590613c0d565b80156108625780601f1061083757610100808354040283529160200191610862565b820191906000526020600020905b81548152906001019060200180831161084557829003601f168201915b5050505050905090565b60006108778261274c565b506000908152600460205260409020546001600160a01b031690565b600061089e82611958565b9050806001600160a01b0316836001600160a01b0316141561092d5760405162461bcd60e51b815260206004820152602160248201527f4552433732313a20617070726f76616c20746f2063757272656e74206f776e6560448201527f720000000000000000000000000000000000000000000000000000000000000060648201526084015b60405180910390fd5b336001600160a01b03821614806109495750610949813361070f565b6109bb5760405162461bcd60e51b815260206004820152603d60248201527f4552433732313a20617070726f76652063616c6c6572206973206e6f7420746f60448201527f6b656e206f776e6572206f7220617070726f76656420666f7220616c6c0000006064820152608401610924565b6109c583836127b0565b505050565b6000818152600c602052604081206005015460ff61010090910416151560011480156107d45750506000908152600c6020526040902060070154421090565b60606000610a1660085490565b90506000610a2360095490565b600854610a309190613bca565b90506000808267ffffffffffffffff811115610a5c57634e487b7160e01b600052604160045260246000fd5b604051908082528060200260200182016040528015610af957816020015b610ae66040518061014001604052806000815260200160006001600160a01b0316815260200160006001600160a01b0316815260200160008152602001600081526020016000151581526020016000151581526020016000815260200160008152602001600081525090565b815260200190600190039081610a7a5790505b50905060005b84811015610c325730600c6000610b17846001613bb2565b81526020810191909152604001600020600201546001600160a01b03161415610c20576000610b47826001613bb2565b6000818152600c60209081526040918290208251610140810184528154815260018201546001600160a01b03908116938201939093526002820154909216928201929092526003820154606082015260048201546080820152600582015460ff808216151560a08401526101009182900416151560c0830152600683015460e0830152600783015490820152600882015461012082015285519293509091859087908110610c0557634e487b7160e01b600052603260045260246000fd5b6020908102919091010152610c1b600186613bb2565b945050505b80610c2a81613c48565b915050610aff565b50949350505050565b60606000610c4860085490565b905060008060005b83811015610ce45733600c6000610c68846001613bb2565b81526020810191909152604001600020600101546001600160a01b0316148015610cbf5750600c6000610c9c836001613bb2565b815260208101919091526040016000206005015460ff6101009091041615156001145b15610cd257610ccf600184613bb2565b92505b80610cdc81613c48565b915050610c50565b5060008267ffffffffffffffff811115610d0e57634e487b7160e01b600052604160045260246000fd5b604051908082528060200260200182016040528015610dab57816020015b610d986040518061014001604052806000815260200160006001600160a01b0316815260200160006001600160a01b0316815260200160008152602001600081526020016000151581526020016000151581526020016000815260200160008152602001600081525090565b815260200190600190039081610d2c5790505b50905060005b84811015610c325733600c6000610dc9846001613bb2565b81526020810191909152604001600020600101546001600160a01b0316148015610e205750600c6000610dfd836001613bb2565b815260208101919091526040016000206005015460ff6101009091041615156001145b15610f0b576000610e32826001613bb2565b6000818152600c60209081526040918290208251610140810184528154815260018201546001600160a01b03908116938201939093526002820154909216928201929092526003820154606082015260048201546080820152600582015460ff808216151560a08401526101009182900416151560c0830152600683015460e0830152600783015490820152600882015461012082015285519293509091859087908110610ef057634e487b7160e01b600052603260045260246000fd5b6020908102919091010152610f06600186613bb2565b945050505b80610f1581613c48565b915050610db1565b60606000610f2a60085490565b905060008060005b83811015610f8d5733600c6000610f4a846001613bb2565b81526020810191909152604001600020600201546001600160a01b03161415610f7b57610f78600184613bb2565b92505b80610f8581613c48565b915050610f32565b5060008267ffffffffffffffff811115610fb757634e487b7160e01b600052604160045260246000fd5b60405190808252806020026020018201604052801561105457816020015b6110416040518061014001604052806000815260200160006001600160a01b0316815260200160006001600160a01b0316815260200160008152602001600081526020016000151581526020016000151581526020016000815260200160008152602001600081525090565b815260200190600190039081610fd55790505b50905060005b84811015610c325733600c6000611072846001613bb2565b81526020810191909152604001600020600201546001600160a01b0316141561117b5760006110a2826001613bb2565b6000818152600c60209081526040918290208251610140810184528154815260018201546001600160a01b03908116938201939093526002820154909216928201929092526003820154606082015260048201546080820152600582015460ff808216151560a08401526101009182900416151560c0830152600683015460e083015260078301549082015260088201546101208201528551929350909185908790811061116057634e487b7160e01b600052603260045260246000fd5b6020908102919091010152611176600186613bb2565b945050505b8061118581613c48565b91505061105a565b61119561281e565b61119e816109ca565b156111eb5760405162461bcd60e51b815260206004820152601560248201527f41756374696f6e206973207374696c6c206f70656e00000000000000000000006044820152606401610924565b6000818152600c6020908152604080832060109092529091205460018201546001600160a01b03918216911633148061122c5750336001600160a01b038216145b61129e5760405162461bcd60e51b815260206004820152602e60248201527f4f6e6c792073656c6c6572206f722077696e6e65722063616e20636f6d706c6560448201527f7465207468652061756374696f6e0000000000000000000000000000000000006064820152608401610924565b6001600160a01b03811615611344576002820180546001600160a01b0319163317905560058201805461ffff1916600117905560006004830181905560068301819055600783015581546112f59030908390612878565b6000838152600e602090815260408083206001600160a01b038581168552925282208054929055600184015461132c911682612a7e565b506001820180546001600160a01b0319169055611362565b600182015482546113629130916001600160a01b0390911690612878565b60018201546000848152600e602090815260408083206001600160a01b0386811680865291845293829020548251898152938401529392909216917f7a59a6c36c8b7dc5080444722a7a194bf83837c893f984bcea8692e91551fc47910160405180910390a350506113d46001600755565b50565b6113e13382612ba6565b6114435760405162461bcd60e51b815260206004820152602d60248201527f4552433732313a2063616c6c6572206973206e6f7420746f6b656e206f776e6560448201526c1c881bdc88185c1c1c9bdd9959609a1b6064820152608401610924565b6109c5838383612878565b600b546001600160a01b031633146114ce5760405162461bcd60e51b815260206004820152603060248201527f4f6e6c79204f776e6572206f662074686520636f6e74726163742063616e206360448201527f616c6c207468652066756e6374696f6e000000000000000000000000000000006064820152608401610924565b478061151c5760405162461bcd60e51b815260206004820152601860248201527f436f6e74726163742062616c616e6365206973205a45524f00000000000000006044820152606401610924565b600b546040516001600160a01b039091169082156108fc029083906000818181858888f19350505050158015611556573d6000803e3d6000fd5b5050565b6109c583838360405180602001604052806000815250611e97565b600061157f61281e565b611588826109ca565b6115d45760405162461bcd60e51b815260206004820152601160248201527f41756374696f6e2068617320656e6465640000000000000000000000000000006044820152606401610924565b6000828152600c6020526040902060018101546001600160a01b031633141561163f5760405162461bcd60e51b815260206004820152601a60248201527f63616e6e6f7420626964206f6e207768617420796f75206f776e0000000000006044820152606401610924565b6000838152600e6020908152604080832033845290915290205480156116a75760405162461bcd60e51b815260206004820152601a60248201527f596f7520616c726561647920676976656e20796f7572206269640000000000006044820152606401610924565b6000848152600e602090815260408083203384529091528120546116cc903490613bb2565b905082600401548110156117485760405162461bcd60e51b815260206004820152602960248201527f43616e6e6f74206269642062656c6f7720746865206c6174657374206269646460448201527f696e6720707269636500000000000000000000000000000000000000000000006064820152608401610924565b6000858152600e6020908152604080832033845290915281208054349290611771908490613bb2565b909155506000905061178b34670de0b6b3a7640000613bb2565b6004850181905560008781526010602090815260408083208054336001600160a01b03199182168117909255600f805460018101825595527f8d1108e10bcb7c27dddfc02ed9d693a074039d026cf4ea4240b40f7d581ac8029094018054909416811790935580518a815291820186905292935090917f0bda7f7cf42011b27b057b83f3bf21f963b84eb591478e6b413b18d7872cd37a910160405180910390a250909250505061183c6001600755565b919050565b6000828152600c60205260408120600101546001600160a01b031633146118aa5760405162461bcd60e51b815260206004820152601560248201527f596f7520617265206e6f7420746865204f776e657200000000000000000000006044820152606401610924565b600d80549060006118ba83613c48565b9091555042905060006118cd8483613bb2565b6000868152600c6020908152604091829020600481018a905560058101805461ff0019166101001790556006810186905560070183905581518981529081018890529081018490526060810182905290915033907fb0c0552f858e630668cc4c58a1b7d1bd302efa77c15d8ec0f1fe725053c598019060800160405180910390a25092949350505050565b6000818152600260205260408120546001600160a01b0316806107d45760405162461bcd60e51b815260206004820152601860248201527f4552433732313a20696e76616c696420746f6b656e20494400000000000000006044820152606401610924565b60006001600160a01b038216611a3b5760405162461bcd60e51b815260206004820152602960248201527f4552433732313a2061646472657373207a65726f206973206e6f74206120766160448201527f6c6964206f776e657200000000000000000000000000000000000000000000006064820152608401610924565b506001600160a01b031660009081526003602052604090205490565b611a5f61281e565b611a68816109ca565b611ab45760405162461bcd60e51b815260206004820152601360248201527f41756374696f6e206d75737420626520656e64000000000000000000000000006044820152606401610924565b6000818152601060205260409020546001600160a01b03163314611b1a5760405162461bcd60e51b815260206004820152601e60248201527f486967657374206269646465722063616e6e6f742077696474686472617700006044820152606401610924565b6000818152600e6020908152604080832033808552925282208054929055611b429082612a7e565b604080518381526020810183905233917f5eec25485ddf1aad4b5c89eda65e6053949901bfb1fe6f4c553e9c208b5bd5f8910160405180910390a2506113d46001600755565b600b546001600160a01b03163314611c085760405162461bcd60e51b815260206004820152602160248201527f4f6e6c79206f776e65722063616e2063616c6c20746869732066756e6374696f60448201527f6e000000000000000000000000000000000000000000000000000000000000006064820152608401610924565b600a55565b60606000611c1a60085490565b905060008060005b83811015611c7d5733600c6000611c3a846001613bb2565b81526020810191909152604001600020600101546001600160a01b03161415611c6b57611c68600184613bb2565b92505b80611c7581613c48565b915050611c22565b5060008267ffffffffffffffff811115611ca757634e487b7160e01b600052604160045260246000fd5b604051908082528060200260200182016040528015611d4457816020015b611d316040518061014001604052806000815260200160006001600160a01b0316815260200160006001600160a01b0316815260200160008152602001600081526020016000151581526020016000151581526020016000815260200160008152602001600081525090565b815260200190600190039081611cc55790505b50905060005b84811015610c325733600c6000611d62846001613bb2565b81526020810191909152604001600020600101546001600160a01b03161415611e6b576000611d92826001613bb2565b6000818152600c60209081526040918290208251610140810184528154815260018201546001600160a01b03908116938201939093526002820154909216928201929092526003820154606082015260048201546080820152600582015460ff808216151560a08401526101009182900416151560c0830152600683015460e0830152600783015490820152600882015461012082015285519293509091859087908110611e5057634e487b7160e01b600052603260045260246000fd5b6020908102919091010152611e66600186613bb2565b945050505b80611e7581613c48565b915050611d4a565b6060600180546107e990613c0d565b611556338383612c24565b611ea13383612ba6565b611f035760405162461bcd60e51b815260206004820152602d60248201527f4552433732313a2063616c6c6572206973206e6f7420746f6b656e206f776e6560448201526c1c881bdc88185c1c1c9bdd9959609a1b6064820152608401610924565b611f0f84848484612cf3565b50505050565b6000818152600c6020526040902060030154348114611f9c5760405162461bcd60e51b815260206004820152603260248201527f506c65617365207375626d6974207468652061736b696e67207072696365207460448201527f6f20707572636861736520746865204e465400000000000000000000000000006064820152608401610924565b6000828152600c602052604081206002810180546001600160a01b0319163317905560058101805461ffff19166001179055600481018290556006810182905560070155611fee600980546001019055565b611ff9303384612878565b600b54600a546040516001600160a01b039092169181156108fc0291906000818181858888f19350505050158015612035573d6000803e3d6000fd5b506000828152600c60205260408082206001015490516001600160a01b03909116913480156108fc02929091818181858888f1935050505015801561207e573d6000803e3d6000fd5b50506000908152600c6020526040902060010180546001600160a01b0319169055565b60006120b1600880546001019055565b60006120bc60085490565b90506120c83382612d7c565b6120d28186612f15565b6120dd818585612fbe565b949350505050565b606060006120f260085490565b905060008060005b8381101561215857600c6000612111836001613bb2565b815260208101919091526040016000206005015460ff6101009091041615156001141561214657612143600184613bb2565b92505b8061215081613c48565b9150506120fa565b5060008267ffffffffffffffff81111561218257634e487b7160e01b600052604160045260246000fd5b60405190808252806020026020018201604052801561221f57816020015b61220c6040518061014001604052806000815260200160006001600160a01b0316815260200160006001600160a01b0316815260200160008152602001600081526020016000151581526020016000151581526020016000815260200160008152602001600081525090565b8152602001906001900390816121a05790505b50905060005b84811015610c3257600c600061223c836001613bb2565b815260208101919091526040016000206005015460ff61010090910416151560011415612349576000612270826001613bb2565b6000818152600c60209081526040918290208251610140810184528154815260018201546001600160a01b03908116938201939093526002820154909216928201929092526003820154606082015260048201546080820152600582015460ff808216151560a08401526101009182900416151560c0830152600683015460e083015260078301549082015260088201546101208201528551929350909185908790811061232e57634e487b7160e01b600052603260045260246000fd5b6020908102919091010152612344600186613bb2565b945050505b8061235381613c48565b915050612225565b60606123668261274c565b6000828152600660205260408120805461237f90613c0d565b80601f01602080910402602001604051908101604052809291908181526020018280546123ab90613c0d565b80156123f85780601f106123cd576101008083540402835291602001916123f8565b820191906000526020600020905b8154815290600101906020018083116123db57829003601f168201915b50505050509050600061241660408051602081019091526000815290565b9050805160001415612429575092915050565b81511561245b578082604051602001612443929190613a34565b60405160208183030381529060405292505050919050565b6120dd84613212565b6060600f80548060200260200160405190810160405280929190818152602001828054801561086257602002820191906000526020600020905b81546001600160a01b0316815260019091019060200180831161249e575050505050905090565b600f81815481106124d557600080fd5b6000918252602090912001546001600160a01b0316905081565b6000818152600c602052604081206002810180546001600160a01b0319163317905560058101805461ffff191660011790556004810182905560068101829055600701819055612543600980546001019055565b61254e303384612878565b600b54600a546040516001600160a01b039092169181156108fc0291906000818181858888f1935050505015801561258a573d6000803e3d6000fd5b506000828152600c60205260408082206001015490516001600160a01b03909116913480156108fc02929091818181858888f193505050501580156125d3573d6000803e3d6000fd5b50506000908152600c602052604090206001810180546001600160a01b0319169055600201546001600160a01b031690565b600a5434146126625760405162461bcd60e51b8152602060048201526024808201527f5072696365206d75737420626520657175616c20746f206c697374696e6720706044820152637269636560e01b6064820152608401610924565b6000828152600c60205260409020600201546001600160a01b031633146126f15760405162461bcd60e51b815260206004820152602360248201527f4f6e6c79206974656d206f776e65722063616e20726573656c6c20746869732060448201527f6e667400000000000000000000000000000000000000000000000000000000006064820152608401610924565b6000828152600c6020526040902060058101805460ff19169055600381018290556001810180546001600160a01b0319908116331790915560029091018054909116301790556127416009613286565b611556333084612878565b6000818152600260205260409020546001600160a01b03166113d45760405162461bcd60e51b815260206004820152601860248201527f4552433732313a20696e76616c696420746f6b656e20494400000000000000006044820152606401610924565b600081815260046020526040902080546001600160a01b0319166001600160a01b03841690811790915581906127e582611958565b6001600160a01b03167f8c5be1e5ebec7d5bd14f71427d1e84f3dd0314c0f7b2291e5b200ac8c7c3b92560405160405180910390a45050565b600260075414156128715760405162461bcd60e51b815260206004820152601f60248201527f5265656e7472616e637947756172643a207265656e7472616e742063616c6c006044820152606401610924565b6002600755565b826001600160a01b031661288b82611958565b6001600160a01b0316146128ef5760405162461bcd60e51b815260206004820152602560248201527f4552433732313a207472616e736665722066726f6d20696e636f72726563742060448201526437bbb732b960d91b6064820152608401610924565b6001600160a01b03821661296a5760405162461bcd60e51b8152602060048201526024808201527f4552433732313a207472616e7366657220746f20746865207a65726f2061646460448201527f72657373000000000000000000000000000000000000000000000000000000006064820152608401610924565b61297783838360016132dd565b826001600160a01b031661298a82611958565b6001600160a01b0316146129ee5760405162461bcd60e51b815260206004820152602560248201527f4552433732313a207472616e736665722066726f6d20696e636f72726563742060448201526437bbb732b960d91b6064820152608401610924565b600081815260046020908152604080832080546001600160a01b03199081169091556001600160a01b0387811680865260038552838620805460001901905590871680865283862080546001019055868652600290945282852080549092168417909155905184937fddf252ad1be2c89b69c2b068fc378daa952ba7f163c4a11628f55a4df523b3ef91a4505050565b80612a87575050565b6001600160a01b038216612b035760405162461bcd60e51b815260206004820152602360248201527f4572726f722063616e6e6f74207472616e7366657220746f206164647265737360448201527f28302900000000000000000000000000000000000000000000000000000000006064820152608401610924565b6000826001600160a01b03168260405160006040518083038185875af1925050503d8060008114612b50576040519150601f19603f3d011682016040523d82523d6000602084013e612b55565b606091505b50509050806109c55760405162461bcd60e51b815260206004820152601b60248201527f4572726f722c206661696c656420746f2073656e6420457468657200000000006044820152606401610924565b600080612bb283611958565b9050806001600160a01b0316846001600160a01b03161480612bf957506001600160a01b0380821660009081526005602090815260408083209388168352929052205460ff165b806120dd5750836001600160a01b0316612c128461086c565b6001600160a01b031614949350505050565b816001600160a01b0316836001600160a01b03161415612c865760405162461bcd60e51b815260206004820152601960248201527f4552433732313a20617070726f766520746f2063616c6c6572000000000000006044820152606401610924565b6001600160a01b03838116600081815260056020908152604080832094871680845294825291829020805460ff191686151590811790915591519182527f17307eab39ab6107e8899845ad3d59bd9653f200f220920489ca2b5937696c31910160405180910390a3505050565b612cfe848484612878565b612d0a84848484613365565b611f0f5760405162461bcd60e51b815260206004820152603260248201527f4552433732313a207472616e7366657220746f206e6f6e20455243373231526560448201527f63656976657220696d706c656d656e74657200000000000000000000000000006064820152608401610924565b6001600160a01b038216612dd25760405162461bcd60e51b815260206004820181905260248201527f4552433732313a206d696e7420746f20746865207a65726f20616464726573736044820152606401610924565b6000818152600260205260409020546001600160a01b031615612e375760405162461bcd60e51b815260206004820152601c60248201527f4552433732313a20746f6b656e20616c7265616479206d696e746564000000006044820152606401610924565b612e456000838360016132dd565b6000818152600260205260409020546001600160a01b031615612eaa5760405162461bcd60e51b815260206004820152601c60248201527f4552433732313a20746f6b656e20616c7265616479206d696e746564000000006044820152606401610924565b6001600160a01b038216600081815260036020908152604080832080546001019055848352600290915280822080546001600160a01b0319168417905551839291907fddf252ad1be2c89b69c2b068fc378daa952ba7f163c4a11628f55a4df523b3ef908290a45050565b6000828152600260205260409020546001600160a01b0316612f9f5760405162461bcd60e51b815260206004820152602e60248201527f45524337323155524953746f726167653a2055524920736574206f66206e6f6e60448201527f6578697374656e7420746f6b656e0000000000000000000000000000000000006064820152608401610924565b600082815260066020908152604090912082516109c592840190613662565b6000821161300e5760405162461bcd60e51b815260206004820152601c60248201527f7072696365206d757374206265206174206c65617374203120776569000000006044820152606401610924565b600a54341461306b5760405162461bcd60e51b8152602060048201526024808201527f7072696365206d75737420626520657175616c20746f206c697374696e6720506044820152637269636560e01b6064820152608401610924565b604051806101400160405280848152602001336001600160a01b03168152602001306001600160a01b03168152602001838152602001838152602001600015158152602001600015158152602001600081526020016000815260200182815250600c60008581526020019081526020016000206000820151816000015560208201518160010160006101000a8154816001600160a01b0302191690836001600160a01b0316021790555060408201518160020160006101000a8154816001600160a01b0302191690836001600160a01b03160217905550606082015181600301556080820151816004015560a08201518160050160006101000a81548160ff02191690831515021790555060c08201518160050160016101000a81548160ff02191690831515021790555060e08201518160060155610100820151816007015561012082015181600801559050506131c4333085612878565b604080513381523060208201529081018390526000606082015283907fb640004f1d14576d0c209e240cad0410e0d8c0c33a09375861fbadae2588a98d9060800160405180910390a2505050565b606061321d8261274c565b600061323460408051602081019091526000815290565b90506000815111613254576040518060200160405280600081525061327f565b8061325e846134c8565b60405160200161326f929190613a34565b6040516020818303038152906040525b9392505050565b8054806132d55760405162461bcd60e51b815260206004820152601b60248201527f436f756e7465723a2064656372656d656e74206f766572666c6f7700000000006044820152606401610924565b600019019055565b6001811115611f0f576001600160a01b03841615613323576001600160a01b0384166000908152600360205260408120805483929061331d908490613bca565b90915550505b6001600160a01b03831615611f0f576001600160a01b0383166000908152600360205260408120805483929061335a908490613bb2565b909155505050505050565b60006001600160a01b0384163b156134bd57604051630a85bd0160e11b81526001600160a01b0385169063150b7a02906133a9903390899088908890600401613a63565b602060405180830381600087803b1580156133c357600080fd5b505af19250505080156133f3575060408051601f3d908101601f191682019092526133f091810190613907565b60015b6134a3573d808015613421576040519150601f19603f3d011682016040523d82523d6000602084013e613426565b606091505b50805161349b5760405162461bcd60e51b815260206004820152603260248201527f4552433732313a207472616e7366657220746f206e6f6e20455243373231526560448201527f63656976657220696d706c656d656e74657200000000000000000000000000006064820152608401610924565b805181602001fd5b6001600160e01b031916630a85bd0160e11b1490506120dd565b506001949350505050565b606060006134d583613580565b600101905060008167ffffffffffffffff81111561350357634e487b7160e01b600052604160045260246000fd5b6040519080825280601f01601f19166020018201604052801561352d576020820181803683370190505b5090508181016020015b600019017f3031323334353637383961626364656600000000000000000000000000000000600a86061a8153600a850494508461357357613578565b613537565b509392505050565b6000807a184f03e93ff9f4daa797ed6e38ed64bf6a1f01000000000000000083106135c9577a184f03e93ff9f4daa797ed6e38ed64bf6a1f010000000000000000830492506040015b6d04ee2d6d415b85acef810000000083106135f5576d04ee2d6d415b85acef8100000000830492506020015b662386f26fc10000831061361357662386f26fc10000830492506010015b6305f5e100831061362b576305f5e100830492506008015b612710831061363f57612710830492506004015b60648310613651576064830492506002015b600a83106107d45760010192915050565b82805461366e90613c0d565b90600052602060002090601f01602090048101928261369057600085556136d6565b82601f106136a957805160ff19168380011785556136d6565b828001600101855582156136d6579182015b828111156136d65782518255916020019190600101906136bb565b506136e29291506136e6565b5090565b5b808211156136e257600081556001016136e7565b600067ffffffffffffffff8084111561371657613716613c79565b604051601f8501601f19908116603f0116810190828211818310171561373e5761373e613c79565b8160405280935085815286868601111561375757600080fd5b858560208301376000602087830101525050509392505050565b80356001600160a01b038116811461183c57600080fd5b600060208284031215613799578081fd5b61327f82613771565b600080604083850312156137b4578081fd5b6137bd83613771565b91506137cb60208401613771565b90509250929050565b6000806000606084860312156137e8578081fd5b6137f184613771565b92506137ff60208501613771565b9150604084013590509250925092565b60008060008060808587031215613824578081fd5b61382d85613771565b935061383b60208601613771565b925060408501359150606085013567ffffffffffffffff81111561385d578182fd5b8501601f8101871361386d578182fd5b61387c878235602084016136fb565b91505092959194509250565b6000806040838503121561389a578182fd5b6138a383613771565b9150602083013580151581146138b7578182fd5b809150509250929050565b600080604083850312156138d4578182fd5b6138dd83613771565b946020939093013593505050565b6000602082840312156138fc578081fd5b813561327f81613c8f565b600060208284031215613918578081fd5b815161327f81613c8f565b600080600060608486031215613937578283fd5b833567ffffffffffffffff81111561394d578384fd5b8401601f8101861361395d578384fd5b61396c868235602084016136fb565b9660208601359650604090950135949350505050565b600060208284031215613993578081fd5b5035919050565b600080604083850312156139ac578182fd5b823591506137cb60208401613771565b600080604083850312156139ce578182fd5b50508035926020909101359150565b6000806000606084860312156139f1578283fd5b505081359360208301359350604090920135919050565b60008151808452613a20816020860160208601613be1565b601f01601f19169290920160200192915050565b60008351613a46818460208801613be1565b835190830190613a5a818360208801613be1565b01949350505050565b60006001600160a01b03808716835280861660208401525083604083015260806060830152613a956080830184613a08565b9695505050505050565b6020808252825182820181905260009190848201906040850190845b81811015613ae05783516001600160a01b031683529284019291840191600101613abb565b50909695505050505050565b602080825282518282018190526000919060409081850190868401855b82811015613b9257815180518552868101516001600160a01b0390811688870152868201511686860152606080820151908601526080808201519086015260a08082015115159086015260c08082015115159086015260e08082015190860152610100808201519086015261012090810151908501526101409093019290850190600101613b09565b5091979650505050505050565b60208152600061327f6020830184613a08565b60008219821115613bc557613bc5613c63565b500190565b600082821015613bdc57613bdc613c63565b500390565b60005b83811015613bfc578181015183820152602001613be4565b83811115611f0f5750506000910152565b600181811c90821680613c2157607f821691505b60208210811415613c4257634e487b7160e01b600052602260045260246000fd5b50919050565b6000600019821415613c5c57613c5c613c63565b5060010190565b634e487b7160e01b600052601160045260246000fd5b634e487b7160e01b600052604160045260246000fd5b6001600160e01b0319811681146113d457600080fdfea2646970667358221220dc21ee9a09913ec2bb5d0061d00ebb32a095501e8c099ce1035191e42e82b3c664736f6c63430008040033",
  "linkReferences": {},
  "deployedLinkReferences": {}
}